:020000040000fa
:080000000002040000000000f2
:020000040000fa
:10040000cf8120000e7f27000e0188000000000031
:1004100000012000200288000c000700606420001a
:100420000100200011000700000020000000e00093
:100430000200320000000200000000002606020058
:10044000000000000040da000000fe004440a90067
:10045000000020000000e000030032000000200047
:10046000a00188004440a800000006009101880017
:10047000800078000000eb0015003700e2804000ab
:1004800032a0b4009101ba00e280400032a0b40072
:100490009102ba00e280400032a0b4000002eb00fa
:1004a000472bde00f507b200602ce10004003a00a3
:1004b0000059eb008301e900fdff3e000400370016
:1004c0006128e100010032000082eb000400070017
:1004d0001101ba000200e000e8ff3a000000060047
:1004e0003159ba008301e9000c0032002159ba00e9
:1004f0008301e900080032000400e00003003a0034
:10050000e280400032a0b400f5ff370011d9ba00f4
:100510008301e900faff3a008100e800e180400031
:1005200032a0b4000000060000a0fe003600f80073
:10053000849fbe00861f78003400f800040020006d
:10054000a40188000000fa00d40120009440880033
:100550000002eb00844088000002eb00a440880009
:1005600003003700944080000402e90094408800b2
:1005700094408000e00f5200faff3c0000000000b1
:10058000000000000000000000000000000000006b
:100590000412800062026200e00f5200fcff3a0089
:1005a00014002000441288000000000004128000a3
:1005b00062026200e00f5200fcff3a0014002000cb
:1005c00044128800000000000412800061026200f2
:1005d000e00f5200fcff3200844080004512800092
:1005e000040342000480200004024300050a78004e
:1005f000844080000402e80084408800000000007d
:100600000412800062026200e00f5200fcff3a0018
:100610001400200044128800000000000412800032
:1006200061026200e00f5200fcff32008440800053
:1006300045128000040342000480200004024300ad
:10064000050a7800844080000402e80084408800a5
:10065000000000000412800062026200e00f5200fd
:10066000fcff3a0014002000441288000000000043
:100670000412800061026200e00f5200fcff3200b1
:100680008440800045128000040342000480200062
:1006900004024300050a7800844080000402e80058
:1006a00084408800000000000412800062026200a2
:1006b000e00f5200fcff3a001400200044128800b2
:1006c000000000000412800061026200e00f52008e
:1006d000fcff320084408000451280000403420089
:1006e0000480200004024300050a78008440800052
:1006f0000402e8008440880000000000041280002a
:1007000062026200e00f5200fcff3a001400200079
:1007100044128800000000000412800061026200a0
:10072000e00f5200fcff3200844080004512800040
:10073000040342000480200004024300050a7800fc
:10074000844080000402e80084408800000000002b
:100750000412800062026200e00f5200fcff3a00c7
:1007600014002000441288000000000004128000e1
:1007700061026200e00f5200fcff32008440800002
:10078000451280000403420004802000040243005c
:10079000050a7800844080000402e8008440880054
:1007a000000000000412800062026200e00f5200ac
:1007b000fcff3a00140020004412880000000000f2
:1007c0000412800061026200e00f5200fcff320060
:1007d0008440800045128000040342000480200011
:1007e00004024300050a7800844080000402e80007
:1007f0008440880000000000041280006102620052
:10080000e00f5200fcff320084408000451280005f
:10081000040342000480200004024300050a78001b
:10082000a440800084024200048020000482420030
:1008300094027800a4aa2a00848f52007b003a0018
:10084000b4408000a54080008502e8000583420096
:1008500005802000850243009502780004034200d1
:100860000480270004024300050a7800b440800099
:100870000402e800b4408800b54080000440200035
:10088000110009008402d80001027800b4408800f9
:10089000b4408000a54080008582e80005834200c6
:1008a0000580200085024300950278000403420081
:1008b0000480270004024300050a7800b440800049
:1008c0000402e800b4408800b540800004402000e5
:1008d000110009008402d80001027800b4408800a9
:1008e000b4408000a5408000e382420005834200be
:1008f0000580200085024300950278000403420031
:100900000480270004024300050a7800b4408000f8
:100910000402e800b4408800b54080000440200094
:10092000110009008402d80001027800b440880058
:10093000b4408000a5408000e4824200058342006c
:1009400005802000850243009502780004034200e0
:100950000480270004024300050a7800b4408000a8
:100960000402e800b4408800b54080000440200044
:10097000110009008402d80001027800b440880008
:10098000b4408000a5408000e5824200058342001b
:100990000580200085024300950278000403420090
:1009a0000480270004024300050a7800b440800058
:1009b0000402e800b4408800b540800004402000f4
:1009c000110009008402d80001027800b4408800b8
:1009d000b4408000a5408000e682420005834200ca
:1009e0000580200085024300950278000403420040
:1009f0000480270004024300050a7800b440800008
:100a00000402e800b4408800b540800004402000a3
:100a1000110009008402d80001027800b440880067
:100a2000d440800066024200d44088008420a9009f
:100a30000080fa003400f9004f0378004f02be0036
:100a40003600f9000080fe00004006000000fa00b9
:100a500004002200041c8800f43f2000541c88007d
:100a6000c4032000141c880084292000441c880032
:100a700004002000241c88008480a9009480a90020
:100a800081e3a8000080fa00000006000000fa00e0
:100a90008480a9000080fa00004006000000fa00ef
:100aa00004302000143a88000002eb00243a880049
:100ab00074032000343a8800240580000440a1001b
:100ac0000450a1000460a0002405880014068000e2
:100ad0000400a0000410a1000420a0001406880057
:100ae00034002000140a88008420a9009420a80063
:100af000140280000450a1000460a1000470a10051
:100b000014028800d302a800c0a2a9000002eb00d2
:100b1000844088000002eb00a440880009003700f0
:100b2000a44080008402420004802000048242002d
:100b30008002eb00050a7800a44080000402e8006f
:100b4000a4408800a4408000e70f5200f4ff340066
:100b50000002eb00a44088000002eb00b4408800d3
:100b60000002eb00c44088000002eb00d440880083
:100b70000080fa00000006000000fa000002eb000e
:100b8000441288008540a9009540a90044058000d2
:100b90000480a1000490a10004a0a00044058800e6
:100ba000d4532100141288000002eb0024128800a4
:100bb00040c2a9000080fa00000006000000fa0010
:100bc0008142a9008122a8008102a90080e2a90037
:100bd00080c2a80080a2a800041480000400a00025
:100be0000410a100041488008162a900141480007c
:100bf00004a0a10004b0a100141488001414800003
:100c00000450a1000460a1000470a1000480a100b0
:100c100014148800141480000400a0000410a00024
:100c20000420a0000430a00014148800d400200088
:100c3000241488008802a8008c02a9008b80a900d7
:100c40009b80a9000080fa00000006000000fa0066
:100c500092ff0700c8ff0700d8ff07007bff0700cf
:100c600081e2a800040028000412880000000000af
:100c7000b5408000f41f2000848f5200fcff340038
:0c0c8000ffff37000040da000000fe001b
:020000040000fa
:1000080042060000420600004206000042060000c8
:1000180042060000420600004206000042060000b8
:10002800420600009402000042060000420600005a
:100038004605000042060000420600004206000095
:100048004206000042060000420600004206000088
:100058004206000042060000420600004206000078
:100068004206000042060000420600004206000068
:100078004206000042060000420600004206000058
:100088004206000042060000420600004206000048
:100098004206000042060000420600004206000038
:1000a8004206000042060000420600004206000028
:1000b8004206000042060000420600004206000018
:1000c8004206000042060000420600004206000008
:1000d80042060000420600004206000042060000f8
:1000e80042060000420600004206000042060000e8
:1000f80042060000420600004206000042060000d8
:1001080042060000420600004206000042060000c7
:1001180042060000420600004206000042060000b7
:1001280042060000420600004206000042060000a7
:100138004206000042060000420600004206000097
:100148004206000042060000420600004206000087
:100158004206000042060000420600004206000077
:100168004206000042060000420600004206000067
:100178004206000042060000420600004206000057
:100188004206000042060000420600004206000047
:100198004206000042060000420600004206000037
:1001a8004206000042060000420600004206000027
:1001b8004206000042060000420600004206000017
:1001c8004206000042060000420600004206000007
:1001d80042060000420600004206000042060000f7
:1001e80042060000420600004206000042060000e7
:0801f80042060000420600006f
:020000040000fa
:1002080042060000420600004206000042060000c6
:1002180042060000420600004206000042060000b6
:100228004206000094020000420600004206000058
:100238004605000042060000420600004206000093
:100248004206000042060000420600004206000086
:100258004206000042060000420600004206000076
:100268004206000042060000420600004206000066
:100278004206000042060000420600004206000056
:100288004206000042060000420600004206000046
:100298004206000042060000420600004206000036
:1002a8004206000042060000420600004206000026
:1002b8004206000042060000420600004206000016
:1002c8004206000042060000420600004206000006
:1002d80042060000420600004206000042060000f6
:1002e80042060000420600004206000042060000e6
:1002f80042060000420600004206000042060000d6
:1003080042060000420600004206000042060000c5
:1003180042060000420600004206000042060000b5
:1003280042060000420600004206000042060000a5
:100338004206000042060000420600004206000095
:100348004206000042060000420600004206000085
:100358004206000042060000420600004206000075
:100368004206000042060000420600004206000065
:100378004206000042060000420600004206000055
:100388004206000042060000420600004206000045
:100398004206000042060000420600004206000035
:1003a8004206000042060000420600004206000025
:1003b8004206000042060000420600004206000015
:1003c8004206000042060000420600004206000005
:1003d80042060000420600004206000042060000f5
:1003e80042060000420600004206000042060000e5
:0803f80042060000420600006d
:020000040000fa
:100c8c00000800001c0000000000000000780000bc
:0c0c9c0000080000000000000000000044
:00000001FF
