:020000040000fa
:080000000002040000000000f2
:020000040000fa
:100400006f84210080ff27000001880000000000a9
:10041000050007000c000700e206020000000000d3
:100420000040da000000fe004440a9000000200067
:100430000000e0000300320000002000a00188005e
:100440004440a800000006002072200001002000a7
:100450001600370062004000e080480091018800eb
:100460009001ba0062004000e080480091018800dd
:100470009002ba0062004000e08048000002eb00f9
:100480006028e10005003a008301e900070033001d
:10049000038009000059eb00040037006128e100e7
:1004a000010032000082eb00050007009101880086
:1004b0001001ba000200e000e6ff3a00000005006b
:1004c000910188008002780062004000e0804800ce
:1004d0003559ba008301e900080032002559ba00f5
:1004e0008301e900050032000400e000f4ff32005f
:1004f00015d9ba008301e900f1ff3a0000000600b7
:1005000000a0fe003400f800881f780008c0b30087
:10051000a80188004f0478000400fa00e802a9004e
:10052000004280000000e900004288001042800084
:100530006101b900028fbe00b00020000100200060
:100540001e01be00800f5100818f59009b003e00ac
:100550001e00be00006001008b0037000a0037005b
:1005600016003700220037002e0037003800370011
:1005700044003700500037005c0037006800370047
:100580008e0037007300370030442000700c880064
:1005900090002000800c8800f04f2000100c880094
:1005a00090002000200c880030942000400c88002f
:1005b00090002000500c88008a0037003044200052
:1005c000700c880090002000800c8800f04f200004
:1005d000100c880090002000200c8800e0552000be
:1005e000400c880090002000500c88007d003700ef
:1005f000f0052000700c880090002000800c88001e
:10060000f04f2000100c880090002000200c880083
:10061000e0552000400c880090002000500c88001d
:1006200070003700c00b2000700c88009000200084
:10063000800c8800d0192000a00c880090002000b9
:10064000b00c880080002000f04188006500370071
:10065000c00b2000700c880090002000800c8800e7
:10066000d0192000d00c8800d09b2000c00c88003e
:10067000f09f2000e0088800c0002000e00c880007
:1006800058003700f0052000700c88009000200012
:10069000800c8800f04f2000100c88009000200093
:1006a000200c8800e0552000400c880090002000bd
:1006b000500c88004b003700f0052000700c8800bb
:1006c00090002000800c8800f04f2000100c880063
:1006d00090002000200c880030942000400c8800fe
:1006e00090002000500c88003e003700304420006d
:1006f000700c880090002000800c8800f04f2000d3
:10070000100c880090002000200c880030942000fd
:10071000400c880090002000500c88003100370009
:10072000f0052000700c880090002000800c8800ec
:10073000f04f2000100c880090002000200c880052
:10074000e0552000400c880090002000500c8800ec
:1007500024003700c00b2000700c8800900020009f
:10076000800c8800d0192000d00c8800d09b20007d
:10077000c00c8800f09f2000e0088800c000200026
:10078000e00c880017003700f0052000700c88008e
:1007900090002000800c8800f04f2000100c880092
:1007a00090002000200c8800e0552000400c8800bc
:1007b00090002000500c88000a003700c00b200079
:1007c000700c880090002000800c8800d019200058
:1007d000a00c880090002000b00c88008000200051
:1007e000f0418800004280000000e0000c003a0068
:1007f0001042800080004000808120000080400086
:100800001000780000428800104280008000400004
:100810000080200000804000100078001042880016
:100820008500a9000080fa003400f9000080fe0075
:100830000040060000a0fe003400f800881f780089
:1008400008c0b300a80188004f0478000000fa0037
:10085000e802a9008440a9000080fa003400f900f1
:100860000080fe000040060000a0fe003400f800fa
:10087000881f780008c0b300a80188004f047800e2
:100880000000fa00e802a80084c0a9000080fa0075
:100890003400f9000080fe000040060000a0fe00c9
:1008a0003400f800881f780008c0b300a801880051
:1008b0004f0478000000fa00e802a8008720a90091
:1008c0000080fa003400f9000080fe0000400600bd
:1008d00000a0fe003400f800881f780008c0b300b4
:1008e000a80188004f0478000200fa0091418000be
:1008f00000802000808f500002003a000000eb00d2
:1009000090418800d0418000000f78001e007800e0
:100910000000e000040032001e007800e70f5000e5
:100920000400320008003700c0cc2c0040128800c0
:1009300017003700a0418000401288000000eb0043
:10094000a04188001200370090418000618420009f
:10095000000040006080780040128800b0418000b4
:100960000000e900b04188009041800061842000cf
:1009700000004000e0807800a0418000008040003e
:10098000a0418800904180000000e800904188006c
:10099000f04180000000e900f0418800f041800053
:1009a0000000e00005003400a00c8000000fb00043
:1009b000a00c880090002000b00c8800d04180007e
:1009c0000000e800d0418800d0418000e80f5000ce
:1009d00002003a000000eb00d04188008740a900e7
:1009e0000080fa003400f9000080fe00004006009c
:1009f00000a0fe003400f800881f780008c0b30093
:100a0000a80188004f0478000000fa008920a9009e
:100a10000080fa003400f9000080fe00004006006b
:100a2000809fbe00821f78003400f80000c0b30031
:100a3000a00188000400fa00c222a80080418000c2
:100a4000821480006184200000004000010040000a
:100a500002087800b04180000000e800b041880042
:100a6000804180008000e800f07f280080806000e6
:100a7000010f78001e0078000000e0000a003d0031
:100a80009e0078008100e900010f780000802f00af
:100a90009e00780080807000010f78001e007800b2
:100aa0000000e800000f78009e0078009041800070
:100ab000808f500003003200804180000000e80079
:100ac0008041880081418000f07f280080806000a4
:100ad000110798009e0090000100e0000a003d0010
:100ae0001e0090000000e9001007980000802f0011
:100af0009e00900080807000110798001e009000fa
:100b00000000e800100798001e0090008041880057
:100b10008b80a900c222a9000080fa003400f900ed
:100b20004f0178004f00be00004006000000fa00b0
:100b300000302000103a88000000eb00203a8800c6
:100b400070032000303a8800210c2000914078008a
:100b500080cfb30000c060003040b300c2e0b700f7
:100b6000810a20009140780080cfb30000c060006f
:100b70000024a000a8e0b700510a200091407800ae
:100b800080cfb30000c060000024a000a5e0b70043
:100b9000710a20009140780080cfb30000c060004f
:100ba0000024a000a7e0b700010b200091407800ce
:100bb000f0c8b30000c0600001c4b3000140700081
:100bc000b0e0b700110b20009140780080cfb30057
:100bd00000c060000024a000b1e0b700810b20003d
:100be00091407800f0c8b30000c0600001c4b300b9
:100bf00001407000b8e0b7000000eb00500888002a
:100c0000f09f2000700888000000280090088800ed
:100c10008440a9009440a90084c0a90094c0a90000
:100c20008720a9009720a9008740a9009740a90024
:100c30008920a9009920a9008500a9009500a90094
:100c400084e0a90094e0a80042c0bf007f4060009b
:100c500042e0b700d0432100101288000000eb00f2
:100c6000201288000000280000128800e402a90079
:100c70000000eb0010428800300020000042880095
:100c80000000eb00a04188000000eb00d04188008c
:100c90000080fa00000006000000fa0013e1a9003d
:100ca0000080fa00000006000000fa000042800008
:100cb000e10f5000fdff3a000080fa00000006003e
:100cc0000200fa000000eb00804188000000eb0009
:100cd000904188000000eb00b04188000000eb006c
:100ce000000f7800090037008041800061842000f7
:100cf00000004000810040000000eb008008780008
:100d00001e007800804188001e0fe800f07f200060
:100d10009e0f1000f4ff34000000eb0080418800bb
:100d20000000eb00904188000000eb00b04188001b
:100d30000080fa00000006000000fa008142a800ce
:100d40008122a8008102a80080e2a90080c2a80038
:100d500080a2a9000128200091407800c0cfb300f4
:100d600000c060000004a00080e2b7008162a9001a
:100d7000312820009140780030cfb30000c06000df
:100d800083e2b70011148000f0e12f0000806000c2
:100d90001014880082c2bf00f040b30082e2b700a6
:100da0000000eb00201488008802a9008c02a80033
:100db0008b80a9009b80a80081e2a8000080fa0037
:100dc000000006000000fa00bdff0700daff070080
:100dd00056ff070000f82f000016880081418000b0
:100de000f03f2000808f5000fcff34009440a800aa
:100df00094c0a8009720a8009740a8009920a800b8
:100e00009500a80000003700b04180000000e0001d
:100e1000fdff3c00b1418000f07f2000808f50003a
:100e2000f9ff34009440a90094c0a9009720a900bc
:100e30009740a9009920a9009500a9000000fe0094
:040e4000feff37007a
:020000040000fa
:100008005607000056070000560700005607000074
:100018005607000056070000560700005607000064
:1000280056070000560700001a0400005607000093
:100038005607000056070000340400005607000069
:10004800800200005607000056070000560700000f
:100058005607000056070000560700005607000024
:100068005607000056070000560700005607000014
:100078005607000056070000560700005607000004
:10008800560700004e0400006804000056070000f0
:1000980056070000560700005607000056070000e4
:1000a80056070000560700005607000056070000d4
:1000b80056070000560700005607000056070000c4
:1000c80056070000f8040000560700005607000015
:1000d80056070000560700005607000056070000a4
:1000e8005607000056070000560700005607000094
:1000f8005607000056070000560700005607000084
:100108005607000056070000560700005607000073
:1001180010050000560700005607000056070000ab
:100128005607000056070000560700005607000053
:100138005607000056070000560700005607000043
:100148005607000056070000560700005607000033
:100158005607000056070000560700005607000023
:100168005607000056070000560700005607000013
:100178005607000056070000560700005607000003
:1001880056070000560700005607000056070000f3
:1001980056070000560700005607000056070000e3
:1001a80056070000560700005607000056070000d3
:1001b80056070000560700005607000056070000c3
:1001c80056070000560700005607000056070000b3
:1001d80056070000560700005607000056070000a3
:1001e8005607000056070000560700005607000093
:0801f800560700005607000045
:020000040000fa
:100208005607000056070000560700005607000072
:100218005607000056070000560700005607000062
:1002280056070000560700001a0400005607000091
:100238005607000056070000340400005607000067
:10024800800200005607000056070000560700000d
:100258005607000056070000560700005607000022
:100268005607000056070000560700005607000012
:100278005607000056070000560700005607000002
:10028800560700004e0400006804000056070000ee
:1002980056070000560700005607000056070000e2
:1002a80056070000560700005607000056070000d2
:1002b80056070000560700005607000056070000c2
:1002c80056070000f8040000560700005607000013
:1002d80056070000560700005607000056070000a2
:1002e8005607000056070000560700005607000092
:1002f8005607000056070000560700005607000082
:100308005607000056070000560700005607000071
:1003180010050000560700005607000056070000a9
:100328005607000056070000560700005607000051
:100338005607000056070000560700005607000041
:100348005607000056070000560700005607000031
:100358005607000056070000560700005607000021
:100368005607000056070000560700005607000011
:100378005607000056070000560700005607000001
:1003880056070000560700005607000056070000f1
:1003980056070000560700005607000056070000e1
:1003a80056070000560700005607000056070000d1
:1003b80056070000560700005607000056070000c1
:1003c80056070000560700005607000056070000b1
:1003d80056070000560700005607000056070000a1
:1003e8005607000056070000560700005607000091
:0803f800560700005607000043
:020000040000fa
:100e44004608000000100000000000000008000038
:100e54003000000002000000010002000003000056
:100e64000400050000060000070008000009000057
:100e74000a000b0000000000020001000002000054
:100e84002601090000020000010002000002000027
:100e940026010900000300003008000016000000cd
:080ea400000000000000000046
:020000040000fa
:040eac000000fe0044
:00000001FF
